{
    "contractName": "Donation",
    "abi": [
        {
            "inputs": [],
            "stateMutability": "nonpayable",
            "type": "constructor"
        },
        {
            "inputs": [
                {
                    "internalType": "address",
                    "name": "accepter",
                    "type": "address"
                }
            ],
            "name": "deposit",
            "outputs": [],
            "stateMutability": "payable",
            "type": "function"
        },
        {
            "inputs": [],
            "name": "doner",
            "outputs": [
                {
                    "internalType": "address",
                    "name": "",
                    "type": "address"
                }
            ],
            "stateMutability": "view",
            "type": "function"
        }
    ],
    "bytecode": "608060405234801561001057600080fd5b50600080546001600160a01b031916331790556101d4806100326000396000f3fe6080604052600436106100295760003560e01c8063799d48721461002e578063f340fa011461006a575b600080fd5b34801561003a57600080fd5b5060005461004e906001600160a01b031681565b6040516001600160a01b03909116815260200160405180910390f35b61007d61007836600461016e565b61007f565b005b6000546001600160a01b031633146100de5760405162461bcd60e51b815260206004820181905260248201527f4f6e6c7920646f6e65722063616e2072756e20746869732066756e6374696f6e60448201526064015b60405180910390fd5b662386f26fc100003410156101355760405162461bcd60e51b815260206004820152601f60248201527f43616e206e6f74206265206c657373207468616e20302e3031204d617469630060448201526064016100d5565b6040516001600160a01b038216903480156108fc02916000818181858888f1935050505015801561016a573d6000803e3d6000fd5b5050565b60006020828403121561018057600080fd5b81356001600160a01b038116811461019757600080fd5b939250505056fea26469706673582212202559d7f0a446dac68a9e4ce113aea61831ea80c38946d344240fdf4ddbc952b464736f6c63430008100033",
    "sourcePath": "/home/ammar264/Documents/twitter-3.0/smart_contracts/maticDonation.sol",
    "compiler": {
        "name": "solc",
        "version": "0.8.16+commit.07a7930e"
    },
    "functionHashes": {
        "deposit(address)": "f340fa01",
        "doner()": "799d4872"
    },
    "gasEstimates": {
        "creation": {
            "codeDepositCost": "93600",
            "executionCost": "24376",
            "totalCost": "117976"
        },
        "external": {
            "deposit(address)": "infinite",
            "doner()": "2303"
        }
    }
}