{
    "contractName": "tweets",
    "abi": [
        {
            "inputs": [],
            "stateMutability": "nonpayable",
            "type": "constructor"
        },
        {
            "anonymous": false,
            "inputs": [
                {
                    "indexed": false,
                    "internalType": "address",
                    "name": "tweeter",
                    "type": "address"
                },
                {
                    "indexed": false,
                    "internalType": "uint256",
                    "name": "id",
                    "type": "uint256"
                },
                {
                    "indexed": false,
                    "internalType": "string",
                    "name": "tweetTxt",
                    "type": "string"
                },
                {
                    "indexed": false,
                    "internalType": "string",
                    "name": "tweetImg",
                    "type": "string"
                }
            ],
            "name": "tweetCreated",
            "type": "event"
        },
        {
            "inputs": [
                {
                    "internalType": "string",
                    "name": "tweetTxt",
                    "type": "string"
                },
                {
                    "internalType": "string",
                    "name": "tweetImg",
                    "type": "string"
                }
            ],
            "name": "addTweet",
            "outputs": [],
            "stateMutability": "payable",
            "type": "function"
        },
        {
            "inputs": [
                {
                    "internalType": "uint256",
                    "name": "id",
                    "type": "uint256"
                }
            ],
            "name": "getTweet",
            "outputs": [
                {
                    "internalType": "string",
                    "name": "",
                    "type": "string"
                },
                {
                    "internalType": "string",
                    "name": "",
                    "type": "string"
                },
                {
                    "internalType": "address",
                    "name": "",
                    "type": "address"
                }
            ],
            "stateMutability": "view",
            "type": "function"
        },
        {
            "inputs": [],
            "name": "owner",
            "outputs": [
                {
                    "internalType": "address",
                    "name": "",
                    "type": "address"
                }
            ],
            "stateMutability": "view",
            "type": "function"
        }
    ],
    "bytecode": "608060405234801561001057600080fd5b50600080546001600160a01b03191633178155600155610710806100356000396000f3fe6080604052600436106100345760003560e01c80637e75b408146100395780638da5cb5b1461004e578063c3ad5ecb1461008b575b600080fd5b61004c610047366004610425565b6100ba565b005b34801561005a57600080fd5b5060005461006e906001600160a01b031681565b6040516001600160a01b0390911681526020015b60405180910390f35b34801561009757600080fd5b506100ab6100a6366004610489565b6101ec565b604051610082939291906104e8565b34670de0b6b3a76400001461010e5760405162461bcd60e51b8152602060048201526015602482015274506c65617365207375626d69742031204d6174696360581b60448201526064015b60405180910390fd5b600154600090815260026020819052604090912090810161012f84826105af565b506003810161013e83826105af565b5080546001600160a01b031916339081178255600180549083018190556040517f7833935c4a0db647706761b6cf59177b216d1d35e41408f8f7d54ce993064a359261018f9290918790879061066f565b60405180910390a1600180549060006101a7836106b3565b9091555050600080546040516001600160a01b03909116913480156108fc02929091818181858888f193505050501580156101e6573d6000803e3d6000fd5b50505050565b606080600060015484106102325760405162461bcd60e51b815260206004820152600d60248201526c139bc81cdd58da08151dd9595d609a1b6044820152606401610105565b6000848152600260208190526040909120805491810180549192909160038401916001600160a01b031690839061026890610526565b80601f016020809104026020016040519081016040528092919081815260200182805461029490610526565b80156102e15780601f106102b6576101008083540402835291602001916102e1565b820191906000526020600020905b8154815290600101906020018083116102c457829003601f168201915b505050505092508180546102f490610526565b80601f016020809104026020016040519081016040528092919081815260200182805461032090610526565b801561036d5780601f106103425761010080835404028352916020019161036d565b820191906000526020600020905b81548152906001019060200180831161035057829003601f168201915b50505050509150935093509350509193909250565b634e487b7160e01b600052604160045260246000fd5b600082601f8301126103a957600080fd5b813567ffffffffffffffff808211156103c4576103c4610382565b604051601f8301601f19908116603f011681019082821181831017156103ec576103ec610382565b8160405283815286602085880101111561040557600080fd5b836020870160208301376000602085830101528094505050505092915050565b6000806040838503121561043857600080fd5b823567ffffffffffffffff8082111561045057600080fd5b61045c86838701610398565b9350602085013591508082111561047257600080fd5b5061047f85828601610398565b9150509250929050565b60006020828403121561049b57600080fd5b5035919050565b6000815180845260005b818110156104c8576020818501810151868301820152016104ac565b506000602082860101526020601f19601f83011685010191505092915050565b6060815260006104fb60608301866104a2565b828103602084015261050d81866104a2565b91505060018060a01b0383166040830152949350505050565b600181811c9082168061053a57607f821691505b60208210810361055a57634e487b7160e01b600052602260045260246000fd5b50919050565b601f8211156105aa57600081815260208120601f850160051c810160208610156105875750805b601f850160051c820191505b818110156105a657828155600101610593565b5050505b505050565b815167ffffffffffffffff8111156105c9576105c9610382565b6105dd816105d78454610526565b84610560565b602080601f83116001811461061257600084156105fa5750858301515b600019600386901b1c1916600185901b1785556105a6565b600085815260208120601f198616915b8281101561064157888601518255948401946001909101908401610622565b508582101561065f5787850151600019600388901b60f8161c191681555b5050505050600190811b01905550565b60018060a01b038516815283602082015260806040820152600061069660808301856104a2565b82810360608401526106a881856104a2565b979650505050505050565b6000600182016106d357634e487b7160e01b600052601160045260246000fd5b506001019056fea26469706673582212209ac1b36a09913748e5aeac4935a9d60b4cd22bdcd9382ca64733f1b95269c1f064736f6c63430008100033",
    "sourcePath": "/home/ammar264/Documents/twitter-3.0/smart_contracts/tweets.sol",
    "compiler": {
        "name": "solc",
        "version": "0.8.16+commit.07a7930e"
    },
    "functionHashes": {
        "addTweet(string,string)": "7e75b408",
        "getTweet(uint256)": "c3ad5ecb",
        "owner()": "8da5cb5b"
    },
    "gasEstimates": {
        "creation": {
            "codeDepositCost": "361600",
            "executionCost": "29637",
            "totalCost": "391237"
        },
        "external": {
            "addTweet(string,string)": "infinite",
            "getTweet(uint256)": "infinite",
            "owner()": "2326"
        }
    }
}